:100000000C9434000C943E000C943E000C943E0082
:100010000C943E000C943E000C943E000C943E0068
:100020000C943E000C943E000C943E000C943E0058
:100030000C943E000C943E000C943E000C943E0048
:100040000C943E000C943E000C943E000C943E0038
:100050000C943E00130228023D02520267027C0209
:100060009102A602BB02D00211241FBECFE5D8E048
:10007000DEBFCDBF0E9471010C9467030C94000099
:1000800040E00E94470008950E94270108958234AD
:1000900019F118F4813439F008958334B1F18434BE
:1000A00009F44CC00895413059F42AB381E090E03E
:1000B00002C0880F991F6A95E2F7822B8ABB0895C8
:1000C0002AB381E090E002C0880F991F6A95E2F799
:1000D000809582238ABB0895413059F427B381E08B
:1000E00090E002C0880F991F6A95E2F7822B87BBC8
:1000F000089527B381E090E002C0880F991F6A95A8
:10010000E2F78095822387BB0895413059F424B3E8
:1001100081E090E002C0880F991F6A95E2F7822B78
:1001200084BB089524B381E090E002C0880F991F3A
:100130006A95E2F78095822384BB0895413059F493
:1001400021B381E090E002C0880F991F6A95E2F721
:10015000822B81BB089521B381E090E002C0880F1B
:10016000991F6A95E2F78095822381BB08958234B6
:1001700019F118F4813439F008958334B1F18434DD
:1001800009F44CC00895413059F42BB381E090E05C
:1001900002C0880F991F6A95E2F7822B8BBB0895E6
:1001A0002BB381E090E002C0880F991F6A95E2F7B7
:1001B000809582238BBB0895413059F428B381E0A8
:1001C00090E002C0880F991F6A95E2F7822B88BBE6
:1001D000089528B381E090E002C0880F991F6A95C6
:1001E000E2F78095822388BB0895413059F425B306
:1001F00081E090E002C0880F991F6A95E2F7822B98
:1002000085BB089525B381E090E002C0880F991F57
:100210006A95E2F78095822385BB0895413059F4B1
:1002200022B381E090E002C0880F991F6A95E2F73F
:10023000822B82BB089522B381E090E002C0880F38
:10024000991F6A95E2F78095822382BB08958234D4
:10025000E9F018F4813431F042C0833459F1843428
:1002600051F13DC049B381E090E09C01062E02C0EF
:10027000220F331F0A94E2F7842F90E08223932306
:1002800002C0959587956A95E2F7089546B381E097
:1002900090E09C01062E02C0220F331F0A94E2F761
:1002A000842F90E08223932302C0959587956A95C9
:1002B000E2F7089583B340B381E090E09C01062EFD
:1002C00002C0220F331F0A94E2F7842F90E08223AA
:1002D000932302C0959587956A95E2F7089580E08B
:1002E00008950E94920163E084E40E944000C0E00F
:1002F000D0E063E084E40E944400813079F42196E8
:10030000C436D10511F4C0E0D0E02FEF85EA9EE0BD
:10031000215080409040E1F700C00000CE010E94D3
:100320001003E7CF41E060E082E40E94470041E033
:1003300061E082E40E94470041E062E082E40E94C2
:10034000470041E064E082E40E94470041E065E04C
:1003500082E40E94470041E066E082E40E94470098
:1003600041E062E081E40E94470041E063E081E413
:100370000E94470040E060E082E40E94B70040E055
:1003800061E082E40E94B70040E062E082E40E9403
:10039000B70040E064E082E40E94B70040E065E01E
:1003A00082E40E94B70040E066E082E40E94B70069
:1003B00040E062E081E40E94B70040E063E081E455
:1003C0000E94B70008950F931F93CF938C01C62FFF
:1003D000623079F018F4613031F01CC0633079F08C
:1003E000643099F017C041E065E082E40E94B700F4
:1003F00011C041E066E082E40E94B7000BC041E01A
:1004000062E081E40E94B70005C041E063E081E45E
:100410000E94B7000A30110508F0D6C0F801E65D69
:10042000FF4F0C944D0340E060E082E40E94B7006F
:1004300040E061E082E40E94B70040E062E082E4D4
:100440000E94B70040E064E082E40E94B700BCC0B4
:1004500041E060E082E40E94B70040E061E082E4B5
:100460000E94B70040E062E082E40E94B70040E0F2
:1004700064E082E40E94B700A7C040E060E082E44C
:100480000E94B70041E061E082E40E94B70040E0D2
:1004900062E082E40E94B70040E064E082E40E94EF
:1004A000B70092C041E060E082E40E94B70041E002
:1004B00061E082E40E94B70040E062E082E40E94D2
:1004C000B70040E064E082E40E94B7007DC040E0F5
:1004D00060E082E40E94B70040E061E082E40E94B4
:1004E000B70041E062E082E40E94B70040E064E0CF
:1004F00082E40E94B70068C041E060E082E40E94AC
:10050000B70040E061E082E40E94B70041E062E0B1
:1005100082E40E94B70040E064E082E40E94B700F9
:1005200053C040E060E082E40E94B70041E061E037
:1005300082E40E94B70041E062E082E40E94B700DA
:1005400040E064E082E40E94B7003EC041E060E029
:1005500082E40E94B70041E061E082E40E94B700BB
:1005600041E062E082E40E94B70040E064E082E49F
:100570000E94B70029C040E060E082E40E94B7001A
:1005800040E061E082E40E94B70040E062E082E483
:100590000E94B70041E064E082E40E94B70014C00A
:1005A00041E060E082E40E94B70040E061E082E464
:1005B0000E94B70040E062E082E40E94B70041E0A0
:1005C00064E082E40E94B7008FE19EE40197F1F7B6
:1005D00000C00000C23079F018F4C13031F01CC006
:1005E000C33079F0C43099F017C040E065E082E490
:1005F0000E94B70011C040E066E082E40E94B700AC
:100600000BC040E062E081E40E94B70005C040E01A
:1006100063E081E40E94B700CF911F910F9108958C
:10062000CF93DF9368EE73E00E9439039B01EC01E6
:1006300061E0C9010E94E301CE0164E670E00E941E
:1006400039039B01EC0162E0C9010E94E301CE0184
:100650006AE070E00E9439039B01EC0163E0C9018C
:100660000E94E30164E0CE010E94E301DF91CF919B
:10067000089597FB072E16F4009407D077FD09D054
:100680000E94530307FC05D03EF4909581959F4F3F
:100690000895709561957F4F0895EE0FFF1F0590A7
:1006A000F491E02D0994AA1BBB1B51E107C0AA1FBE
:1006B000BB1FA617B70710F0A61BB70B881F991F03
:1006C0005A95A9F780959095BC01CD010895F894AD
:0206D000FFCF5A
:00000001FF
